:020000040800F2
:100000009807002031020008151E0008911C000806
:10001000111E0008E1060008912000080000000001
:100020000000000000000000000000007520000833
:10003000E506000800000000191E000879200008ED
:100040004B0200084B0200084B0200084B0200085C
:100050004B0200084B0200084B0200084B0200084C
:100060004B0200084B0200084B0200084B0200083C
:100070004B0200084B0200084B0200084B0200082C
:100080004B0200084B0200084B0200084B0200081C
:100090004B0200084B0200084B0200084B0200080C
:1000A0004B0200084B0200084B0200084B020008FC
:1000B0004B0200084B0200084B0200084B020008EC
:1000C0004B0200084B0200084B0200084B020008DC
:1000D0004B0200084B0200084B0200084B020008CC
:1000E0004B0200084B0200084B0200084B020008BC
:1000F0004B0200084B0200084B0200084B020008AC
:100100000000000000000000000000004B0200089A
:100110004B0200084B0200084B0200084B0200088B
:100120004B0200084B0200084B0200084B0200087B
:100130004B0200084B020008000000000000000015
:100140004B0200084B0200084B02000800000000B0
:10015000000000000000000000000000000000009F
:1001600000000000000000004B0200084B020008E5
:100170004B0200080000000000000000000000002A
:10018000000000004B02000800F002F800F040F808
:100190000AA090E8000C82448344AAF10107DA45E2
:1001A00001D100F035F8AFF2090EBAE80F0013F0F4
:1001B000010F18BFFB1A43F001031847603C000011
:1001C000803C0000103A24BF78C878C1FAD85207A2
:1001D00024BF30C830C144BF04680C6070470000C1
:1001E0000023002400250026103A28BF78C1FBD840
:1001F000520728BF30C148BF0B6070471FB503F0DE
:1002000014FD9DE8030000F029F91FBD10B510BDD5
:1002100000F0E4F91146FFF7F1FF01F03BFF00F0B9
:1002200002FA03B4FFF7F2FF03BC00F033FA000058
:100230000948804709480047FEE7FEE7FEE7FEE77A
:10024000FEE7FEE7FEE7FEE7FEE7FEE704480549B6
:10025000054A064B704700007D2000088901000810
:10026000980100209807002098050020980500209C
:1002700070B5A0FB0140B4F1805170F1000024BFC3
:10028000002070BD204600F007F805001CBF214685
:1002900000F057F9284670BD70B5064600F0C2F868
:1002A000056806F10B0020F00704B4429CBF002053
:1002B00070BD2B466A68BAB11068A04210D304F131
:1002C000080188423CBF5068586007D35168101934
:1002D00041601168091B016058601460101D70BDF9
:1002E00013465268002AE7D12146284600F0A2F8BA
:1002F0000028DED170BD70B50446051F00F092F8ED
:100300000068002C14BF446870BD002C18BFAC42BC
:100310003CBF20466468F8D301680A18AA4218BF97
:10032000456003D12A6805461144016028684119D7
:10033000A1421CBF6C6070BD61686960216808449F
:10034000286070BD032A40F2308010F0030C00F0EA
:10035000158011F8013BBCF1020F624498BF11F8FF
:1003600001CB00F8013B38BF11F8013BA2F10402B8
:1003700098BF00F801CB38BF00F8013B11F0030330
:1003800000F0AD80083AC0F0088051F8043B083A0C
:1003900051F804CBA0E80810F5E7121D5CBF51F836
:1003A000043B40F8043BAFF30080D20724BF11F8B0
:1003B000013B11F801CB48BF11F8012B24BF00F815
:1003C000013B00F801CB48BF00F8012B70474FF00C
:1003D000000200B5134694469646203922BFA0E895
:1003E0000C50A0E80C50B1F12001BFF4F7AF0907A1
:1003F00028BFA0E80C5048BF0CC05DF804EB890092
:1004000028BF40F8042B08BF704748BF20F8022BD4
:1004100011F0804F18BF00F8012B704770477047EC
:100420007047000000487047180000207047704770
:100430007047704738B504460A4600206946AFF356
:100440000080002808BF38BD02460099204600F011
:10045000A3F8012038BD012000F0B8B8F8B5AFF31B
:100460000080054600200C46102000BF0646A81953
:10047000A0420DD9324669460020AFF30080070044
:1004800008BF00F0A3F80098A04218BF0546C419A1
:10049000FFF7C8FF05600746F01D20F0070046196A
:1004A000284600F00AF8B44208BFF8BDA21B314646
:1004B0003868BDE8F84000F06FB800210160C0E97D
:1004C000011070471020704710B500F061F8006807
:1004D00010BD10B5044600F05BF8046010BD10B507
:1004E000203AC0F00B80B1E81850A0E81850B1E8ED
:1004F0001850A0E81850203ABFF4F5AF5FEA027C2C
:1005000024BFB1E81850A0E8185044BF18C918C05B
:10051000BDE810405FEA827C24BF51F8043B40F8FC
:10052000043B08BF7047D20728BF31F8023B48BFE1
:1005300011F8012B28BF20F8023B48BF00F8012B1F
:1005400070474FF000020429C0F0128010F0030C35
:100550003FF43FAFCCF1040CBCF1020F18BF00F820
:10056000012BA8BF20F8022BA1EB0C01FFF731BF34
:100570005FEAC17C24BF00F8012B00F8012B48BFC3
:1005800000F8012B70470000004870471000002061
:100590000048704710000020034640688C46002841
:1005A00018BF88423CBF03464068F8D31868184417
:1005B000884207D00CF1030020F00700001D411A0B
:1005C000521A0146081D0A60FFF795BE10B500F0EB
:1005D00039F8BDE8104000F02FB870477546FFF7B6
:1005E000D3FFAE4605006946534620F00700854616
:1005F00018B020B5FFF72AFEBDE820404FF00006F6
:100600004FF000074FF000084FF0000BAC46ACE88D
:10061000C009ACE8C009ACE8C009ACE8C00921F0E9
:1006200007018D46704710B50446AFF300802046A1
:10063000BDE81040FFF7F5BD002801D000F02AB852
:100640007047000010B5012805D0002103A000F07C
:1006500027F8012010BD09A1F8E7000053494752CF
:10066000544D454D3A204F7574206F662068656182
:1006700070206D656D6F7279000000003A2048654A
:100680006170206D656D6F727920636F7272757025
:100690007465640001491820ABBEFEE72600020025
:1006A00070B505460C460A2000E06D1C00F011F8FC
:1006B00035B128780028F8D102E0641C00F009F870
:1006C00014B120780028F8D1BDE870400A20AFF3BB
:1006D000008008B569468DF800000320ABBE08BD58
:1006E000FEE7000070470000EFF3108072B600BF15
:1006F000FEE700000000000010B590ED190A9FED24
:100700001A1A9FED1A2A20EE010A80EE020A044608
:1007100010EE100A03F0E8F941EC100B9FED0C1BF2
:1007200001F02EFD53EC102B9FED0B0B51EC100B39
:1007300003F0ECF89FED0A0B53EC102B02F02CFDAC
:1007400041EC100B84ED1A0B10BD00BF00BF00BFC1
:100750004A2DEE7D3659C83F000000000000F03FF2
:10076000DF55225749A7F73E0000C84280E6C5473B
:100770002DE9F04381B0551C8846044601202946E6
:100780009146FFF775FD06462846FFF785FD347054
:1007900040F60004C4F60004074620464FF400511A
:1007A000002200F039FB40F22C104FF0FF3CABB2BE
:1007B000C2F2000031463A46CDF800C001F0E0F840
:1007C000054620464FF40051012200F025FB25B9D3
:1007D000791C40464A46FFF7B5FD3046FFF78BFDD2
:1007E0003846FFF788FD284601B0BDE8F0830000D9
:1007F0002DE9F0472DED028B044600F093F904F14A
:100800002401002003220025FFF7B2FF94F82510F1
:1008100094F8240094F82620090241EA0040E18B74
:100820001044228CA0EB012181FB0223C4E90B01BF
:10083000D00D40EA43224FF63000C7F6FF708242E7
:1008400002F5FA695AD381FB0113B9F5FA66A6FBE2
:10085000067C4FF005054FEAD1714FEAE97AA7FB14
:10086000057E41EA43054FEAD3716AF1000306FBB6
:1008700003C0E16306FB0300BB0800EB800070448B
:100880005FEA500843EA807E4FEA900C4FF2532013
:10089000CFF6FF704FEA37068242A563C4E91068BD
:1008A000C4F84CC0C4F848E02FD840F2DC5010EB3C
:1008B0000900A0FB00234AF1000700FB073300FBFF
:1008C00007300723A2FB03A7C0EBC0033B4416EB92
:1008D0000A0643EB08035FEA50004FEA32024FF08A
:1008E0000B08A2FB082700FB087012EB0E0240EB7E
:1008F0000C00C4E91063C4E9122006E00021C4E939
:100900000E55C4E91055C4E9125500EE109A284658
:10091000B8EEC08A03F016F900EE100A9FED051A32
:1009200038EE400A80EE010A84ED180ABDEC028B15
:10093000BDE8F0870000C842F0B581B0044600F081
:10094000B1F804F1240100200322FFF711FFA08B6E
:10095000216B638B81FB00C283FB01E394F82510BC
:1009600094F8240094F82650090241EA00402844F3
:10097000218B4FEADC1545EA426515EB014CD4E9C1
:1009800010514FEAE21242F10002BCEB050562EBA6
:100990000101E28A4FEA1E2646EA0366A76C1B1293
:1009A00016EBC23243F1000CE36CD21BA2FB0076C3
:1009B0006CEB0303A06203FB0060E3657B0DA265A3
:1009C000421543EAC020401BC4E9145162EB010107
:1009D000C00B40EA4140C91303F0B4F89FED040A8C
:1009E00001EE100A81EE000A84ED190A01B0F0BD93
:1009F0000000C84210B50446C11CA0200222FFF727
:100A0000B7FE611DA2200222FFF7B2FEE11DA42065
:100A10000222FFF7ADFE04F10901A6200222FFF732
:100A2000A7FE04F10B01A8200222FFF7A1FE04F1AA
:100A30000D01AA200222FFF79BFE04F10F01AC205A
:100A40000222FFF795FE04F11101AE200222FFF70A
:100A50008FFEB4F80300B4F8051000BA000CA082B1
:100A600008BAB4F80710000CE08208BAB4F809100C
:100A7000000C208308BAB4F80B10000C608308BA8D
:100A8000B4F80D10000CA08308BAB4F80F10000CD5
:100A9000E08308BAB4F81110000C208408BA000CE6
:100AA000608410BDF0B583B00446407840F600077E
:100AB000C4F6000740F040008DF80B0038464FF4B4
:100AC0000051002200F0A8F940F22C16C2F20006F4
:100AD0004FF0FF350DF10B010DF10A0230460123F5
:100AE000009500F04DFF00BF304600F09DFE01284C
:100AF000FAD138464FF40051012200F08DF96078A8
:100B000008280CD840F25511C140C90707D043F658
:100B1000C851C0F6000151F8200000F07BF803B086
:100B2000F0BD0000F0B583B00446807840F60007C1
:100B3000C4F6000740F050008DF80B0038464FF423
:100B40000051002200F068F940F22C16C2F20006B3
:100B50004FF0FF350DF10B010DF10A023046012374
:100B6000009500F00DFF00BF304600F05DFE01284B
:100B7000FAD138464FF40051012200F04DF9A07827
:100B800008280CD840F25511C140C90707D043F6D8
:100B9000C851C0F6000151F8200000F03BF803B046
:100BA000F0BD0000F0B583B040F600070446C4F67F
:100BB00000071E208DF80B0038464FF4005100222C
:100BC00000F02AF940F22C16C2F200064FF0FF3571
:100BD0000DF10B010DF10A0230460123009500F0E2
:100BE000CFFE00BF304600F01FFE0128FAD1384684
:100BF0004FF40051012200F00FF9052000F00AF82F
:100C00002046FFF7F7FE40F60800A4F8010003B005
:100C1000F0BD0000B0B5044600F004F9054640F20E
:100C20000000C2F200000078611C18BF044400BF3D
:100C300000F0F8F8401BA042FAD3B0BD2DE9F04F08
:100C400084B08E4641F20002C4F60002DEF8004095
:100C500005219042019008BF0421002C009100F072
:100C6000D7800198002500F138424FEAB22300985E
:100C7000012700264FF00008042B38BF18460090CB
:100C8000CDF808E00EE000BFDEF8004008F10108F2
:100C900034FA07F106F1020607F1010705F1040530
:100CA00000F0B680A7F1010A012000FA0AF314EA65
:100CB0000309E9D0DEF804C00CF0030BABF101042A
:100CC000012C17D80198744681680322E468B24069
:100CD0009143B4402143816041684FEA480E9943F3
:100CE000CCF3001303FA0AF30446D04319436160BE
:100CF0000CE000BF0321B140019CC843BBF1030FCE
:100D0000B64603D1B6464FF0030B23E0E168029AE2
:100D100001409368BBF1020F03FA0EF341EA0301AD
:100D2000E16017D16FF0030101EA5A01214405F097
:100D30001C040F23D1F820C003FA04FB13692CEA2A
:100D40000B0CA34043EA0C03019C0B62D2F804C0D5
:100D50000CF0030B21680BFA0EF2014011432160E5
:100D6000DDF808E01CF4403F8ED041F21800C4F2D8
:100D70000200016840F2004C41F00101016001688D
:100D8000C4F2010C01F00101039103992AF003015F
:100D90004FF6084A6144CFF6FF7A05F00C030F20A6
:100DA00051F80A2000FA03F40098A24300FA03F372
:100DB0001A4341F80A20DCF80010DEF8042041EA6A
:100DC0000903D40358BF21EA0903CCF80030DCF84A
:100DD0000410940341EA090358BF21EA0903CCF83F
:100DE0000430DCF8081040F20C4041EA0903D40258
:100DF00058BF21EA0903CCF80830C4F201000168A9
:100E0000920241EA090358BF21EA090303603BE764
:100E100004B0BDE8F08F00001823002A08BF282383
:100E2000C150704740F29010C2F200000068704755
:100E300090F84120202A03D190F84020012A01D1C6
:100E400002207047242280F841200268136823F0B2
:100E500001031360136823F480531360136819436C
:100E60001160116841F001011160202180F84110EA
:100E7000002180F8401008467047000090F841209B
:100E8000202A03D190F84020012A01D10220704786
:100E9000242280F841200268136823F001031360C4
:100EA000136823F4706343EA01211160116841F073
:100EB00001011160202180F84110002180F84010CC
:100EC00008467047002804BF0120704710B504464B
:100ED00090F8410028B9002084F84000204600F036
:100EE00043F8242084F8410094E80910E26801687E
:100EF000012A21F00101016023F070610161816824
:100F000021F40041816003D14CF40041816007E08D
:100F10004CF40441022A816004BF4FF40061416037
:100F2000416804F1100C41F0007141F4004141604E
:100F3000C16821F40041C1609CE80E10114341EAF0
:100F40000321C160216A41EA0C010160016841F09E
:100F50000101016000202021606484F841102063B9
:100F600084F8420010BD000010B586B0006845F25C
:100F70000041C4F20001884202D006B010BD00BF9B
:100F800041F21404C4F20204206801A940F4802054
:100F90002060206800F48020019001984FF4407098
:100FA000019012200290002003900320049004205E
:100FB000059040F20040C4F60000FFF73FFEA06835
:100FC00040F40010A060A06800F4001000900098A9
:100FD00006B010BD40F2000040F29011C2F20000D5
:100FE000C2F2000100780A681044086070470000EF
:100FF00080B542F20000C4F20200016841F0100125
:101000000160032000F072F80F2000F005F800F0F6
:1010100027F8002080BD000070B540F20006C2F243
:10102000000640F208013278C2F200014FF47A73F0
:101030000968B3FBF2F20446B1FBF2F1084600F096
:1010400011FE0F2C4FF0010508D838B94FF0FF30D2
:1010500021460022002500F01DF87460284670BD6E
:1010600082B041F21800C4F20200016841F00101AF
:101070000160016801F0010101910199416841F0AD
:1010800080514160406800F080500090009802B0AC
:101090007047000010B54EF60C5CCEF2000CDCF888
:1010A0000030C3F3022E8EF00704042C28BF042462
:1010B000BEF103034FF0FF3E0EFA04F438BF0023E5
:1010C000A14399400EFA03F39A43114300F00F0233
:1010D000043A624409010C3200F16043B0F1FF3F71
:1010E000C8BF03F56442117010BD00004EF60C51EC
:1010F000CEF200010A684FF6FF031A4060F30A229D
:1011000042F0806040F0FD70086070472DE9F041CA
:1011100082B00446807841F23006C007C4F202066D
:1011200056D056F8140C10F080580BD156F8140C09
:1011300040F0805046F8140C56F8140C00F0805023
:101140000190019847F20007C4F200073868C00513
:1011500012D4386840F480703860FFF763FE0546AB
:101160003868C00508D4FFF75DFE401B6428F7D936
:10117000032002B0BDE8F08156F8100C10F4407066
:1011800015D0616801F44071884210D056F8100CF7
:1011900040F24042C4F24222012320F44071136025
:1011A0000023C007136046F8101C40F0A38056F8D7
:1011B000100C616820F440700843B8F1000F46F845
:1011C000100C05D156F8140C20F0805046F8140C81
:1011D0002068C1071CD1810722D4410728D4810689
:1011E0002ED4810334D441063CD4010742D4C10635
:1011F00048D481054ED4010656D4C1055ED4C1043D
:1012000066D480046CD4002002B0BDE8F08100BF39
:101210003168A26821F00301114331608107DCD5F8
:101220003168E26821F44031114331604107D6D57D
:101230003168226921F44021114331608106D0D503
:101240003168E26921F01001114331608103CAD590
:1012500056F82C1CA26B21F48001114346F82C1C7B
:101260004106C2D53168226A21F020011143316064
:101270000107BCD53168626921F440111143316026
:10128000C106B6D53168A26921F44001114331602D
:101290008105B0D556F82C1CE26A21F400011143F7
:1012A00046F82C1C0106A8D556F8041C626A21F4E5
:1012B000F871114346F8041CC105A0D556F8041C6A
:1012C000A26A21F47851114346F8041CC10498D550
:1012D0003168226B21F4807111433160800492D512
:1012E0003068616B20F4007008433060002002B069
:1012F000BDE8F081FFF796FD054641F2883700BF53
:1013000056F8100C80073FF552AFFFF78BFD401BDE
:10131000B8424FF00300F3D9E9E700002DE9F043AC
:1013200081B0002877D042F20008C4F202080446D7
:10133000D8F800000D4600F0070088420CD2D8F81B
:10134000000020F007002843C8F80000D8F800008B
:1013500000F00700A8425ED1206841F2040981072D
:10136000C4F2020907D5D9F80010A26821F0F001F3
:101370001143C9F80010C00744D1D8F8000000F0AC
:101380000700A8420CD9D8F8000020F00700284335
:10139000C8F80000D8F8000000F00700A8423AD1D1
:1013A0002068410707D5D9F80010E26821F4E06110
:1013B0001143C9F80010000708D5D9F800002169C9
:1013C00020F4605040EAC100C9F80000D9F80020BC
:1013D00002F00C00082841F20020C0F27A0051D13E
:1013E00043F6FC53C2F38341C0F60003595CD9F8BD
:1013F0002830D2033CD440F60010C0F23D004843F0
:1014000040E000BF606802280AD001282AD159F8BC
:10141000041C890308D4012001B0BDE8F08300BF9B
:1014200059F8041C8901F6D5D9F8001021F0030100
:101430000843C9F80000FFF7F5FC064641F288377B
:10144000D9F80000616800F00C00B0EB810F94D077
:10145000FFF7E8FC801BB842F2D9032001B0BDE8D9
:10146000F08300BF59F8041C8907D4D5DCE700BF1E
:1014700003F00F0243F60C63C0F600039A5CB0FB66
:10148000F2F04843D9F8001043F6EC52C1F30311CF
:10149000C0F60002515C40F2080220FA01F140F26D
:1014A0000400C2F200000068C2F200021160FFF7FF
:1014B000B3FD002001B0BDE8F08300002DE9F0414C
:1014C00082B0002850D00446007841F20006C007E0
:1014D000C4F202060AD0706800F00C00042840F044
:1014E00085803068800301D56068E8B32078800784
:1014F0001AD5706810F00C0F09D0706800F00C005D
:10150000082840F0A5807068C00300F1A180306811
:10151000800702D52069012826D13068616920F052
:10152000F80040EAC10030602078000720D420781D
:10153000400735D4E56995B1706800F00C000828C3
:1015400040F0C280012D0FD07068216A00F4803213
:101550008A4209D1616A00F47010884204D10020E7
:1015600002B0BDE8F08100BF012002B0BDE8F0810B
:10157000A069002800F094800020C4F242200121DC
:10158000C0F88014FFF74EFC054600BF706A800764
:10159000CDD4FFF747FC401B0228F7D91CE100BF60
:1015A000F06910F0805808D1F06940F08050F06187
:1015B000F06900F080500190019847F20007C4F2F2
:1015C00000073868C00559D4386840F48070386026
:1015D000FFF728FC054600BF3868C0054ED4FFF76A
:1015E00021FC401B6428F7D9F6E000BF706800F0CA
:1015F0000C00082803D17068C0033FF572AF606823
:10160000B0F5A02F00F09480B0F5803F00F09480FA
:10161000002840F09580306820F4803030603068D9
:1016200020F480203060F06AA16820F00F000843A9
:10163000F062FFF7F7FB0546306880037FF556AF91
:10164000FFF7F0FB401B64284FF00300F4D987E755
:101650002069002840F20000C4F2422056D0012147
:101660000160FFF7DFFB0546306880073FF555AFA7
:10167000FFF7D8FB401B0228F6D9ADE0E068002850
:1016800000F07A80052800F09180012800F0928017
:10169000306A20F001003062306A20F004008CE0F3
:1016A0000020C4F242200021C0F88014FFF7BAFBEA
:1016B000054600BF706A80077FF539AFFFF7B2FBC0
:1016C000401B0228F6D987E00027C4F242270020F9
:1016D0003866FFF7A7FB022D05460BD13068800165
:1016E00040F18880FFF79EFB401B02284FF003006B
:1016F000F4D935E7306880017FF531AFFFF792FB11
:10170000401B02284FF00300F4D929E700210160B3
:10171000FFF788FB054600BF306880077FF504AF00
:10172000FFF780FB401B02284FF00300F4D917E7B6
:10173000306840F480203060306840F4803006E04B
:10174000306820F480303060306820F480203060D1
:10175000F06AA16820F00F000843F062FFF762FB17
:10176000054600BF306880033FF5C0AEFFF75AFB67
:10177000401B6428F6D92FE0306A20F00100306267
:10178000306A20F004003062FFF74CFB054641F25E
:10179000883700BF306A800722D5FFF743FB401B24
:1017A000B8424FF00300F5D9DAE600BF306A40F0E6
:1017B00004003062306A40F001003062FFF732FB13
:1017C000054641F2883700BF306A800708D4FFF72A
:1017D00029FB401BB842F7D9032002B0BDE8F081D5
:1017E000B8F1000F7FF4A6AEF06920F08050F061F0
:1017F000A0E600BF7068D4E9082120F47410084303
:101800001043706001203866FFF70CFB044600BFF0
:10181000306880013FF5A3AEFFF704FB001B0228F0
:101820004FF00300F4D99BE690F85D00704700008C
:10183000002804BF01207047B0B50446406A28B1B3
:101840000020206104F1140006E000BF6068B0F5DC
:10185000827F03D004F11C00002101600025A562F5
:1018600094F85D0020B9204684F85C5000F052F8EE
:10187000022084F85D002068D4F80CE00268BEF510
:10188000E06F22F0400202604EF4006298BF012532
:10189000B2F5706F1CBF0023A3624FEA053CD4E988
:1018A0000135D4E9042103F4827305F404452B4483
:1018B00002F002021A44A36901F00101E569114432
:1018C00003F40072114405F03802256A114405F052
:1018D0008002A56A114405F40052114301600421FD
:1018E000626A0EF4706501EA1341636B45EA0C0508
:1018F00002F01002294303F0080311431943416029
:10190000C16921F40061C16100200121206684F8D1
:101910005D10B0BD80B586B0006843F20001C4F22E
:101920000101884202D006B080BD00BF41F2140020
:10193000C4F20200416841F480514160416801F401
:10194000805101910199016841F480210160006892
:1019500001A900F480200190019838200190022014
:10196000029000200390032004900520059040F28F
:101970000040C4F60000FFF761F906B080BD00002A
:101980002DE9F04381B0044690F85C00012803D1B2
:10199000022001B0BDE8F08301201E4615460F4627
:1019A00084F85C00FFF73EFA94F85D108146012947
:1019B00040F0B080002F4FF0010018BF002D00F064
:1019C0004681002E00F0438194F85D0004281CBF7E
:1019D000052084F85D00002020662564A4F8466098
:1019E000A4F84460A763E687C4E913002068A687CB
:1019F000E1684268B1F5E06F22F48052134698BF67
:101A000003F58053012E88BF1346436002685206D7
:101A100003D4026842F0400202606268731EB2FAA8
:101A200082F2B3FA83F3DDF8208052095B09B1F545
:101A3000E06F43EA02017DD931B137F8021BC16082
:101A4000A763E08F0138E087012518F1010035D147
:101A500002E000BFFFF7E6F9E08F20B9B4F84600D6
:101A6000002800F0D7802068816889070CD5E18FB5
:101A700051B1012D08D1A16B002531F8022BC260B4
:101A8000A163E18F0139E1878168C907E2D0B4F829
:101A900046100029DED0C068216C012521F8020B18
:101AA0002164B4F846000138A4F84600D2E700BF2C
:101AB000FFF7B8F9A0EB0900404545D2E08F20B907
:101AC000B4F84600002800F0A580206881688907E6
:101AD0000CD5E18F51B1012D08D1A16B002531F852
:101AE000022BC260A163E18F0139E1878168C907D8
:101AF000DED0B4F846100029DAD0C068216C012588
:101B000021F8020B2164B4F846000138A4F846001D
:101B1000CEE700BF6068B0F5827F09D1A0680028D9
:101B20004FF0020008BF042940F0918042E700BF57
:101B300002208CE099B1E18F02294FF6FE7105D3A6
:101B400037F8022BC26006E0032080E03A780131CA
:101B50000273A06B471CA763E08F0844E08701264F
:101B600008F10105E08F18B9B4F84600002851D0FB
:101B70002068816889071AD5E18FC1B1012E16D17D
:101B8000E18F022908D3A16B31F8022BC260A16357
:101B9000E18F023909E000BFA16B09780173A16BE5
:101BA00020680131A163E18F01390026E187816856
:101BB000C90725D0B4F8461011B3B4F8461002296D
:101BC00012D3C168226C22F8021B2264B4F84610BA
:101BD0000239A4F84610B4F8461001290FD841681C
:101BE00041F4805141600AE0007B216C0870206C58
:101BF00001302064B4F846000138A4F846000126FC
:101C0000FFF710F9002DADD0A0EB09004045A9D396
:101C100003201CE020464FF4C05142464B4600F0E2
:101C2000FDF868B9204641464A4600F0BBF938B98C
:101C300020464FF4C06142464B4600F0EFF878B1C1
:101C4000206E40F020002066202020660120012127
:101C500084F85D10002184F85C1001B0BDE8F083C9
:101C60000020F4E7411E0020B0EB116F1CBF0120E3
:101C700070474EF21002CEF2000251604EF6235130
:101C8000CEF20001F0230B700721906011607047C5
:101C9000FEE700002DE9F04387B0002741F2140071
:101CA0000697C4F20200016840F2004841F40021A6
:101CB00001600168C4F6000801F400210191019956
:101CC000016808F5806541F4800101600168012226
:101CD00001F480010191019901684FF4005641F42B
:101CE000003101600168012401F400310191019982
:101CF000016841F48021016000684FF4005100F454
:101D00008020019001982846FFF786F84046402140
:101D100000224FF04009FFF77FF8CDE9026402AEE0
:101D200028463146CDE90447FEF788FF0820CDE973
:101D300002074FF0904031460497FEF77FFF404680
:101D40003146CDE90294CDE90474FEF777FF07B080
:101D5000BDE8F08380B540F2E00045F20041C2F2F8
:101D60000000C4F2000148F6D3520023C1F2800201
:101D70004FF0010C80E80E10C0E90433C0E90633CF
:101D80000362FFF79FF8002818BFFEF7ADFC40F292
:101D9000E000C2F200000021FFF74AF8002818BF57
:101DA000FEF7A2FC40F2E000C2F200000021FFF7C3
:101DB00065F8002808BF80BDBDE88040FEF794BCF0
:101DC00010B540F22C1043F20001C2F20000C4F240
:101DD00001014FF4827200234FF4E06C4FF4007E57
:101DE000102480E80E1007210822C0E90433C0E95E
:101DF00006E4C0E90833C0E90A31C0E90C32FFF754
:101E000017FD002808BF10BDBDE81040FEF76CBCF0
:101E1000FEE70000FEE70000704700002DE9F047F4
:101E200082B000261F4690460D4681468DF803601D
:101E3000FEF7F8FF381A00EB0807FEF7F3FF40F251
:101E40000801C2F20001096823225143090DD9F8A3
:101E5000004079430191A168294271D0824618F16E
:101E6000010037D0B5F5C06F1CD100BF207B8DF8C5
:101E700003009DF80300FEF7D5FFA0EB0A00B8426F
:101E800062D2019801990028A1F101010191D9F8CC
:101E90000010896808BF074611F4C06FE6D100261C
:101EA0004EE000BFFEF7BEFFA0EB0A00B8424BD2E7
:101EB000019801990028A1F101010191D9F80010C0
:101EC000896808BF07462942ECD10026304602B097
:101ED000BDE8F0870026B5F5C06F25D1207B8DF8D1
:101EE00003009DF80300A06810F4C06FEDD0207BC4
:101EF0008DF803009DF80300A06810F4C06FE4D0D3
:101F0000207B8DF803009DF80300A06810F4C06FDB
:101F1000DBD0207B8DF803009DF80300A06810F44F
:101F2000C06FDBD10CE000BFA0682842CDD0A06814
:101F30002842CAD0A0682842C7D0A0682842F3D15E
:101F4000304602B0BDE8F087D9E900014268B1F53A
:101F5000827F22F0E00242600BD1D9F80810B1F57F
:101F6000004F02D0B1F5806F03D1016821F040012C
:101F70000160D9F82810B1F5005F07D1016821F49C
:101F800000510160016841F400510160012089F8AD
:101F90005D00002089F85C000326304602B0BDE8F1
:101FA000F0870000F0B581B015460E460446FEF7F6
:101FB00039FF281A8719FEF735FF40F20801C2F2EF
:101FC00000010968C1F3CB317943009121688A6827
:101FD000120622D50546701C15D000BFFEF722FF61
:101FE000401BB8421CD2009800990028A1F10101C1
:101FF00000912168896808BF07460806EED40CE006
:102000008868000609D58868000606D58868000635
:1020100044BF88685FEA0060F2D4002001B0F0BDE0
:10202000D4E900014268B1F5827F22F0E00242600B
:102030000AD1A168B1F5004F02D0B1F5806F03D18C
:10204000016821F040010160A16AB1F5005F07D18C
:10205000016821F400510160016841F40051016000
:10206000012084F85D00002084F85C00032001B0AA
:10207000F0BD000070470000FEF7ACBF4EF6885080
:10208000CEF20000016841F4700101607047000069
:10209000FEE700009EB0FEF7ABFF68460024043068
:1020A0003821CDE91944CDE91744FEF790F9012014
:1020B000149018904FF4E0104FF4803102251D90D9
:1020C00014A8CDE91514CDE91B51FFF7F7F928B194
:1020D000EFF3108072B600BFFEE700BF0F20CDE91E
:1020E0000F054FF48060CDE912040FA8022111946E
:1020F000FFF714F920B1EFF3108072B6FEE700BFCE
:1021000020200090102007906846FEF7FFFF28B1BE
:10211000EFF3108072B600BFFEE700BFFFF7BAFD15
:10212000FFF718FEFFF74CFE40F27004C2F2000405
:102130002046FEF737FD00BF2046FEF759FB20463C
:10214000FEF7FAFB2046FEF7D7FAF5E703B401984D
:102150004100009850EAC12018BF04204A0D18BF62
:1021600040F0010040F2FF72B2EB515F08BF40F057
:102170000200012808BF052002B0704700000000DF
:102180002DE9F04D2DED040B2DED0E8B94B0DDE916
:102190002350259CDDF888A025F0004624F0004857
:1021A000BAF1000F14BF0121002101EB4502FC49E7
:1021B00053184A1093422AD3002814BF0123002346
:1021C00003EB44030B44F7498B4220D358EA000148
:1021D0009FEDF5AB76D0DFF8D8B35D4503D1BAF10A
:1021E000000F05D188E0BAF1000F08BF002100D030
:1021F000012101EB450111F5001F08D8002814BF8B
:102200000121002101EB440111F5001F0BD99DEDC7
:10221000241B9DED220B14B0BDEC0E8B04B0BDE869
:10222000F04D00F071BE0027002DBCBFE14988458C
:1022300021DAE1498845A8BF02271CDAC3451ADC28
:10224000DE4901EB2851142908DDC1F1340220FADE
:1022500002F101FA02F282420DD108E058B9C1F14F
:10226000140228FA02F101FA02F2424503D101F008
:102270000101C1F1020756EA0A0124D1002C22DA39
:10228000002D18BF022F01D0012F0AD00220FEF727
:1022900020F914B0BDEC0E8B04B0BDE8F04D00F099
:1022A0001BBE0220FEF715F900F016FE51EC100BD4
:1022B00000F0A9FE41EC100B14B0BDEC0E8B04B085
:1022C000BDE8F08D18E09FEDBE9B9FEDBF8B002811
:1022D00071D1B848804522D105F1804010F58010B9
:1022E00008BFBAF1000F07D0B3450ADC002CA8BF25
:1022F0009DED240BE0DA0DE0B0EE4A0AF0EE6A0A3A
:10230000DAE7002C06DA9DED240B51EC100B00F0FF
:102310007AFE6FE0AE48784490ED000BCCE7D845EC
:102320004DD1002C48DA2EB186423AD1BAF1000FD5
:1023300042D126E0BAF1000F13D00220FEF7C9F80F
:1023400000F0FEFD8DED020B9DED220B8DED000BDF
:1023500010EE900A039961F31E0003909DED020BAD
:10236000AAE78DED029B9DED220B19EE901A10EE5F
:10237000900A8DED000B61F31E0003909DED020BA2
:102380009AE78DED028B9DED220B18EE901A10EE60
:10239000900A8DED000B61F31E0003909DED020B82
:1023A0008AE709DA9DED220B51EC1A0B53EC102B46
:1023B00000F0F2FE1EE020E09DED220B7CE786425D
:1023C0001BDAB4F1804F0DD0A4F10050B0F1FF50F2
:1023D00013D1002D11DB9DED220B51EC100B00F001
:1023E000DBFD07E09DED220B53EC102B51EC100BA5
:1023F00000F0CABC41EC100B5EE79DED220B51ECE6
:10240000100B00F0BDFDBAF1000FCDE90A0142D179
:102410009FED710B46B3A6F1E040B0F17F600CD0A8
:102420005E4538D1002D00DAA7B3022F0CBF012082
:102430004FF0FF3001F00AF8DCE7002D01DD002C41
:102440000DDA002D01DD002C1FDB002D16DA002C2B
:1024500014DB012F08BF9FED620B3FF42DAFB0EEF0
:10246000490AF0EE690A27E7022F18BF002D0CD0A9
:10247000012F0AD1002DFFF61FAF06E0002DB8BFD7
:10248000002C08DA012F3FF417AFB0EE480AF0EE47
:10249000680A11E71BE0012000EBE57050EA070134
:1024A00015D0791EB0EE4A8AF0EE6A8A084308BF5A
:1024B0009FED4D8B4E480025804570DD4D494E48BF
:1024C000884514DDB0420DDB002C19DB2FE0012024
:1024D000FDF7FFFF14B0BDEC0E8B04B0BDE8F04D6E
:1024E00000F01EBDB34502DC002C09DC1FE0864273
:1024F00002DA002C1BDA03E05E452BDD002C16DD32
:102500000220FDF7E6FF00F01BFD8DED020B53EC02
:10251000192B51EC180B00F0EDFFCDE900010399E8
:10252000019861F31E0003909DED020BC4E60220AA
:10253000FDF7CFFF00F014FD10EE901A18EE900A90
:102540008DED020B8DED008B61F31E0003909DED70
:10255000020BB1E69DED0A0B53EC1A2B51EC100B5C
:1025600001F0D4F99FED260BCDE90A0153EC102BB5
:102570009DED0A0B51EC100B00F0BCFF9FED221BF0
:1025800053EC112B01F0EAF89DED0A1B53EC112BD3
:1025900000F0B0FF9FED1E1B53EC112B3CE08CE0D4
:1025A000FFFF1F00FFFF0F00000000000000F03FD2
:1025B0000000F03F0000F07F0000404301FCFFFFFF
:1025C000000000000000F07F00000000000000009C
:1025D000A61A0000000000000000000000000080BB
:1025E000000000000000F0FF000000000000F0BF4D
:1025F0000000E0410000F043FFFFEF3F000000005B
:10260000000000000000D03F555555555555D53FA9
:10261000000000000000E03F01F0A0F89DED0A0B73
:1026200041EC190B53EC102B51EC100B00F062FF36
:1026300053EC192B00F05EFF9DED0A0B41EC1B0BD8
:1026400053EC102B9FEDFE0B51EC100B00F052FFE2
:1026500041EC190B9FEDFC0B51EC1B0B53EC102BB9
:1026600000F048FF41EC1B0B9FEDF90B53EC102BD6
:102670009DED0A0B51EC100B00F03CFF53EC1B2BB3
:1026800001F044F941EC1B0B51EC190B53EC1B2BE3
:1026900000F0C6FC0490CDE904519DED040B53EC11
:1026A000192B51EC100B01F031F953EC1B2B01F0FD
:1026B00055F841EC100B00F0A9B90020B6F5801FC9
:1026C0000EDA9FEDE50B53EC102B9DED0A0B51EC50
:1026D000100B00F00FFFCDE90A016FF034000E4639
:1026E00000EB2650A0F2FF37C6F31300DC4940F0A0
:1026F0007F6646F040568842D8BF002408DDD9499D
:102700008142C8BF012403DC0024A6F580167F1C8B
:10271000D548784400EBC4080B9698ED000B53ECB9
:10272000102B9DED0A0B51EC100B01F0EFF898ED1A
:10273000000B41EC1B0B53EC102B9DED0A0B51ECE5
:10274000100B00F06DFC41EC100B51EC1A0B53EC2C
:10275000102B00F021FD41EC1C0B51EC1B0B53EC3A
:102760001C2B00F0C7FE41EC190BC0488DED0E9BF1
:1027700078440E9590ED000B4FF0005040EA660053
:1027800000EB84408DED120B00F50020139098EDC6
:10279000000B53EC102B9DED120B51EC100B01F0C4
:1027A000B5F89DED0A1B53EC112B00F0D7FF41EC5F
:1027B000100B53EC102B9DED0E0B51EC100B00F099
:1027C00099FE9DED120B41EC1D0B53EC102B9DED72
:1027D0000E0B51EC100B00F08DFE53EC1B2B00F098
:1027E000BDFF53EC1D2B01F091F853EC1C2B00F0B6
:1027F00081FE41EC1C0B53EC192B51EC190B00F032
:1028000079FE41EC1B0B9A480621B0EE4B0AF0EE24
:102810006B0A784400F0E4FAB0EE401AF0EE601A69
:10282000B0EE41DAF0EE61DA53EC1B2B51EC1B0BEE
:1028300000F060FE53EC1D2B00F05CFE9DED0E0BD6
:1028400041EC1B0B53EC192B51EC100B00F0E8FB87
:1028500053EC1C2B00F04EFE53EC1B2B00F0E0FB66
:102860009DED0E0B41EC1B0B53EC102B51EC100BA0
:1028700000F040FE41EC1D0B53EC1D2B9FED7EEB59
:1028800051EC1E0B00F0CCFB53EC1B2B00F0C8FBF3
:102890001290CDE912519DED120B53EC1E2B51EC11
:1028A000100B01F033F853EC1D2B01F02FF853EC13
:1028B0001B2B00F053FF9DED120B41EC1D0B53EC55
:1028C000102B9DED0E0B51EC100B00F013FE41ECA4
:1028D0001B0B53EC192B51EC1D0B00F00BFE9DED67
:1028E000120B41EC190B53EC102B51EC1C0B00F0AC
:1028F00001FE53EC192B00F093FB41EC190B51EC4A
:102900001B0B53EC192B00F08BFB0490CDE9045109
:102910009DED040B53EC1B2B51EC100B00F0F6FF5C
:1029200053EC192B00F01AFF9DED040B41EC190B31
:1029300053EC102B9FED520B51EC100B00F0DAFD15
:1029400041EC1B0B9FED500B51EC190B53EC102B72
:1029500000F0D0FD9DED040B41EC190B53EC102B56
:102960009FED4B0B51EC100B00F0C4FD53EC192BF9
:1029700000F056FB41EC100B4748784400EBC400D4
:1029800090ED001B51EC100B53EC112B00F048FBA9
:1029900041EC190B384600F059FDCDE90A0153EC22
:1029A000192B51EC1B0B00F03BFB41EC100B3B488F
:1029B000784400EBC40451EC100B94ED001B53EC75
:1029C000112B00F02DFB9DED0A1B53EC112B00F099
:1029D00027FB0490CDE904519DED0A0B53EC102B1D
:1029E0009DED040B51EC100B00F090FF94ED001BDB
:1029F00053EC112B00F08AFF53EC1B2B00F086FFE9
:102A000053EC192B00F0AAFE41EC100B9DED241B9A
:102A100053EC102B8DED001B00959DED240B51EC1C
:102A2000100B00F067FD9DED000B41EC190B53EC12
:102A3000102B9DED240B51EC100B00F067FF2FE0E5
:102A4000000000604715F73FFE822B654715F73FF2
:102A500044DF5DF80BAE543E000000000000404330
:102A60008E9803007AB60B00221600004C16000068
:102A700052150000000000000000000000000840A7
:102A8000000000E009C7EE3FFD033ADC09C7EE3F56
:102A9000F5015B14E02F3EBEDA1300009413000032
:102AA0009DED041B53EC112B00F024FD53EC192B6E
:102AB00000F0B6FA9DED040B41EC190B53EC102B12
:102AC0009DED000B51EC100B00F014FDCDE904015D
:102AD0009DED040B51EC190B53EC102B00F0A0FAF8
:102AE000CDE902010C46AA498C422FDB611A08434A
:102AF00018D19DED040B53EC102B9DED020B51EC06
:102B0000100B00F003FF41EC1B0B9FEDA30B51ECEE
:102B1000190B53EC102B00F083FA53EC1B2B00F035
:102B2000E7FD2DD20220FDF7D4FC00F009FA10EEEB
:102B3000901A18EE900A8DED020B8DED008B61F36B
:102B40001E0003909DED020BFFF7B6BB944A24F0E4
:102B50000041914214D39349214408437FF4E7ACE8
:102B60009DED040B53EC102B9DED020B51EC100B63
:102B700000F0CCFE53EC192B00F0BAFD7FF6D7AC79
:102B800024F000408849894A002601EB2051824206
:102B90002BDA481C4FF4801121FA00F02044844ABB
:102BA000C0F30A517A44A1F2FF3192ED000B814A41
:102BB0008DED0A0BCA4020EA0202C0F3130040F474
:102BC0008010C1F1140120FA01F60B92002CB8BF5D
:102BD00076429DED0A0B53EC102B9DED040B51EC4E
:102BE000100B00F093FECDE904019DED040B51ECB8
:102BF000190B53EC102B00F013FA9FED6F0B0A909A
:102C0000CDE90A5153EC102B9DED0A0B51EC100B42
:102C100000F070FC41EC1B0B9FED690B53EC102B8B
:102C20009DED0A0B51EC100B00F064FC9DED040BC4
:102C300041EC1C0B53EC102B9DED0A0B51EC100BCF
:102C400000F064FE53EC192B00F088FD9FED5E1B35
:102C500053EC112B00F04EFC53EC1C2B00F0E0F970
:102C600041EC190B51EC1B0B53EC192B00F0D8F96C
:102C7000CDE902019DED020B53EC1B2B51EC100B27
:102C800000F044FE53EC192B00F068FD9DED020BA3
:102C900041EC190B53EC102B51EC100B00F02AFCFB
:102CA000CDE90A014A489DED0A0B0521784400F060
:102CB00097F89DED0A1B51EC100B53EC112B00F013
:102CC00019FC9DED021B53EC112B00F047FDCDE9E3
:102CD00004019DED020B53EC192B51EC100B00F08D
:102CE00009FC53EC192B00F09BF99FED3B0B41ECD9
:102CF000190B53EC102B9DED040B51EC100B00F055
:102D000005FE9DED040B41EC1B0B53EC102B9DEDD0
:102D1000020B51EC100B00F0EDFB53EC1B2B00F001
:102D20003BFA53EC192B00F0F1FD9DED021B53EC27
:102D3000112B00F0EBFD53EC1A2B00F00FFDCDE949
:102D4000020101EB065001150029C8BF039015DCF4
:102D50009DED020B324651EC100B00F0A5FFFFF782
:102D6000F5F9042808BF00F0FBF832469DED020B90
:102D700051EC100B00F098FFCDE902019DED020B24
:102D800051EC180B53EC102B00F0B4FBFFF732BBE7
:102D90000000904000000000FE822B654715973C24
:102DA00000CC904000346F3F01FCFFFF0000E03F8B
:102DB00018120000FFFF0F0000000000432EE63F46
:102DC000396CA80C615C20BEEF39FAFE422EE63F5A
:102DD000E8100000000000000000000000000040BB
:102DE00070B504462DED028B4D1E00EBC500B0EE14
:102DF000408AF0EE608A90ED000B35F0060017D0A7
:102E000053EC182B51EC100B00F074FB41EC100B41
:102E10006D1E04EBC50090ED001B51EC100B53EC44
:102E2000112B00F0FDF841EC100B35F00600E7D156
:102E3000022D36D0042D1CD0062D1CBFBDEC028BFC
:102E400070BD53EC182B51EC100B00F053FB94EDBC
:102E50000A1B53EC112B00F0E3F853EC182B00F095
:102E600049FB94ED081B53EC112B00F0D9F841EC11
:102E7000100B53EC182B51EC100B00F03BFB94EDB6
:102E8000061B53EC112B00F0CBF853EC182B00F081
:102E900031FB94ED040B53EC102B00F0C1F841EC26
:102EA000100B53EC182B51EC100B00F023FB94ED9E
:102EB000021B53EC112B00F0B3F853EC182B00F06D
:102EC00019FB94ED001B53EC112B00F0A9F8BDEC9D
:102ED000028B41EC100B70BD9FED070B10B553EC4E
:102EE000102B9FED070B51EC100B00F055F941EC46
:102EF000100B10BD000000000000000000000000EA
:102F0000000000000000F03F10B553EC112B51EC15
:102F1000100B00F085F841EC100B10BD0000000014
:102F20009FED050B10B553EC102B51EC100B00F07E
:102F300033F941EC100B10BD000000000000000050
:102F40009FED050B10B553EC102B51EC100B00F05E
:102F5000D1FA41EC100B10BD000000000000007021
:102F60009FED050B10B553EC102B51EC100B00F03E
:102F7000C1FA41EC100B10BD000000000000001071
:102F800082B0CDE9000121F0004001909DED000BE1
:102F900002B051EC100B704700B52DED048B83B0DF
:102FA00041EC190B00F0E6FB41EC180B18EE100A8F
:102FB00018EE901A8DED008B002818BF01200843F1
:102FC00020F00040C0F17F6000F1E040C00F14D05D
:102FD00019EE101A19EE900A8DED009B002918BF0A
:102FE0000121084320F00040C0F17F6000F1E04083
:102FF000C00F04BF0120FDF76CFA51EC180B03B0B1
:10300000BDEC048B00BD81F00041704780F00040B2
:10301000704721F00041704720F0004070470000E9
:1030200010B591EA030F48BF83F0004300F17684A6
:10303000841A71EB030C05D2121943EB0C03001B2D
:1030400061EB0C014FEA1154A4EB135CDFF81CE1B7
:103050001EEA430F18BF9EEA445F00F0748021EA25
:10306000045123EA0E0343F48013DCF1200E32D323
:1030700022FA0CFE10EB0E0023FA0CFE41EB0E01BF
:10308000CCF1200E03FA0EFE10EB0E00CCF1200E58
:1030900051F10001B1F5801F32D201EB045112FA57
:1030A0000EF2BDE8104058BF7047401C38BF5FEAC1
:1030B000420218BF7047002814BF20F0010041F100
:1030C00000014FEA410313F5001F38BF7047A1F11B
:1030D000C04100F007BB012A43EB0302ACF1200C16
:1030E000DCF11F0E32BF4FF0000E23FA0CF310EB91
:1030F000030041EB0451B4EB115FD0D0A1EB0451BC
:1031000001F58011490801EB04515FEA30000ED34C
:1031100050F1000038BF12FA0EFE08D1BDE8104091
:10312000C9E7401C38BF5FEA4202CAD1C3E7BDE825
:1031300010404FEA410313F5001F38BF7047A1F15B
:10314000C04100F0CFBA9EEA445F08D011EA5E0F9A
:10315000BDE8104004BF01F0004100207047BDE809
:10316000104070B500F070FA64FBBE3E0000E0FF56
:1031700002494FF0000000F065BD00BF0000F87F7D
:10318000491058BFC1F140415B1058BFC3F14043E3
:103190008B42EFF3008070472DE9C04130B4DFF877
:1031A000A4C23CEA111418BF3CEA131400F0ED80ED
:1031B0001CEA111481EA030544EAD57418BF1CEA1D
:1031C000131500F0C880A4EB050404F17F7404F526
:1031D00000344FF0004545EAC12145EAC32341EAE6
:1031E000505143EA52534FEAC0204FEAC22299425B
:1031F00008BF904200F09D804FEA13650FF244161D
:10320000765D4FEA134506FB05F7C7F1807706FBAD
:1032100007F74FEAD737A7FB03687642A7FB06CE2E
:10322000C8F5803838BFA8F1010807FB08E6A6FBFF
:10323000028C4FF0000EE6FB03CEDCF1000CCEF169
:10324000004E38BFAEF1010EA6FB0C584FF0000740
:10325000E6FB0E87A1FB08C6A0FB07CE16EB0E0609
:103260004FF0000545F10005E1FB076515F1E04E63
:103270007EBFA4F580345FEA46066D4116F18007F3
:1032800045F100054FEA172747EA05674FEA15257C
:103290004FEA0666A6F1DE46B6F1805F20D93846D1
:1032A00005EBC47124F0010C01EB0C11BCF1FE6FB5
:1032B00002D8F0BCBDE8008124425CBF01F5801E4D
:1032C0009EEAC47F02D4F0BCBDE80081244200F134
:1032D0003980A1F1C041F0BCBDE8004100F002BA64
:1032E0004FEAD02040EA41504FEAD1214FEAD222A2
:1032F00042EA43524FEAD323A7FB028607FB036649
:1033000005FB02661EEA0E0F58BFA6EB0056B6EB91
:1033100000564FEA520E4EEAC37E18EB0E0E56EBE5
:10332000530EBCD518EB02085E417F1C55F1000519
:10333000B5E74FF480154FF000074FF000064FF04F
:103340000008ACE701F1C04101F000414FF000007E
:10335000F0BCBDE800810CEA131511EA0C1F00D087
:103360000CE013EA0C1F00F026804FF0000081EA09
:10337000030101F00041F0BCBDE80081F0BCBDE8F4
:10338000004181EA030100F0ADB9F0BCBDE80041A5
:1033900070B500F059F900BF097EFC3E00F007B897
:1033A0004FF0000081EA030101F00041704781EA1B
:1033B000030100F097B9F0BCBDE8004122494FF08D
:1033C00000007047FFFDFBF9F7F5F4F2F0EEEDEBCE
:1033D000E9E8E6E4E3E1E0DEDDDBDAD8D7D5D4D313
:1033E000D1D0CFCDCCCBCAC8C7C6C5C4C2C1C0BF5F
:1033F000BEBDBCBBBAB9B8B7B6B5B4B3B2B1B0AF65
:10340000AEADACABAAA9A8A8A7A6A5A4A3A3A2A148
:10341000A09F9F9E9D9C9C9B9A9999989797969503
:1034200095949393929191908F8F8E8E8D8C8C8B9F
:103430008B8A898988888787868585848483838227
:10344000828181800000FF070000F87F10F00042B9
:1034500048BF4042B0FA80F310FA03F10AD0C3F13A
:103460001D0303F5806302EB03524FEA415002EB68
:10347000D12170474FF000007047000051EA030C63
:1034800017D41CF5801F58BFBCF5801F00F10680C3
:10349000994218BF704708BF9042704707D711F58F
:1034A000801F58BF13F5801F19D499427047894275
:1034B00070471CF5801F08D5BCF5801FF7D58B42DF
:1034C00018BF704708BF824270474FF4001C1CEBC6
:1034D000410F38BF1CEB430F01D28B42704770B5D0
:1034E00000F0B2F8922449004FF000514FF08053A1
:1034F000FFF746BE70B5DFF848C11CEA111E1EBFBB
:103500001CEA13159EEA0C0F95EA0C0F00F06F8071
:1035100081EA03044EEAD47EAE4421EA4C1123EA48
:103520004C1341F4801143F48013AEF17F7EA1FB74
:10353000024CA0FB0365361955EB0C05A1FB034CAF
:103540004CF10003A0FB021C16EB0C06654153F185
:103550000003094218BF46F0010613F4007F0BD1A7
:103560004FEA03314FEA053041EA155140EA16505F
:1035700034036FF003020AE04FEAC3214FEAC5208B
:1035800041EA555140EA5650F4026FF0020202EB54
:103590002E4201EB025585EACE710AD05FEA440C57
:1035A00018BF24F0004450F1000041F1000120EA6E
:1035B000D47040F2FE7C624500D270BDA84214BFB8
:1035C0004FF080444FF04044002E08BF0024BEF16D
:1035D000806FA8BFA1F1C041BDE8704080F2828039
:1035E00001F1C04101F000414FF0000070470CEACA
:1035F00013159EEA0C0F18BF95EA0C0F06D081EA4E
:10360000030E4FF000000EF0004170BD00F01CF8FA
:103610008900013E00F007B800F009B84FEA430CFA
:103620005FEA5C5C08D081EA030100F05BB84FEA16
:10363000410C5FEA5C5CF6D102494FF00000704734
:103640000000FF070000F87F0EF1020E2EF0030EBF
:103650005EF8046B364205D4012A43EB030515F5E9
:10366000001F12D8012841EB010C1CF5001F0CD8DB
:103670000ED14FEAD17C0CEB4C0C0CF1020C15F581
:10368000001F08BF4CEBD37C04E04FF0080C01E0B6
:103690004FEAD37C0CEB4C0526FA05F606F007063C
:1036A000B6F1040C06D20EEB860CBDE870404CF06F
:1036B000010C6047DFE80CF0090B02024FF00041FB
:1036C000A1F500214FF0000070BD194610460128F9
:1036D00051EB010418BFD4F5001484BF002001F0A1
:1036E000004170BD0808A0F500114FEA3101704794
:1036F00053EA010C17D41CF5801F58BFBCF5801F7E
:1037000000F106808B4218BF704708BF82427047A5
:1037100007D713F5801F58BF11F5801F19D48B42AE
:1037200070479B4270471CF5801F08D5BCF5801F71
:10373000F7D5994218BF704708BF904270474FF4C1
:10374000001C1CEB430F38BF1CEB410F01D2994208
:1037500070470FB40CBC03BCFFF7C1BE10B591EAB3
:10376000030F81F000413FF563AC83F0004300F0AC
:10377000D5B800002DE9F04101F5801CBCF5001F13
:10378000C0F2A9804FEA115C21EA0C5141F480118A
:103790000CF1FD0C5FEA5C0C0CF5C07C01D3400021
:1037A0004941890241EA905187022EA48E0EA45D00
:1037B0000A0C04FB04F602FB06F6C6F14046A4FB25
:1037C0000662F60D46EA422606FB06F4A4FB012338
:1037D0005242C3F1404338BF5B1EA6FB02420024A5
:1037E000E6FB0324D20B42EA4446A6FB0623A1FBD8
:1037F00002E2A3FB07E4E3FB61426442C2F1404EF4
:1038000038BFAEF1010EA6FB04234FF00002E6FB29
:103810000E32A2FB03463400E2FB6264A1FB06E623
:10382000A4FB07E8E4FB61687642C8F1405838BF62
:10383000A8F10108A2FB06E4A3FB08E5E2FB68543B
:10384000A1FB05E6A7FB04E8E1FB648618F120056F
:1038500056F10006A80940EA8660B109A8F11B08E4
:1038600008F03F08B8F10A0F1CD901EB0C51BDE874
:10387000F08100BFFCF5EEE8E2DDD8D3CFCBC7C3C3
:10388000C0BDB9B6B4B1AEACA9A7A5A3A19F9D9B7D
:103890009A9896959392908F8D8C8B898887868540
:1038A00084838281A0FB006800FB01F208EB4208E0
:1038B000B8EB872807D5341858EB0104D5D5401C40
:1038C00051F10001D1E7341A78EB0104CDD4401E48
:1038D00071F10001C9E75FEA4C0C5FEA9C5C0DD115
:1038E00005D301F000414FF00000BDE8F081BDE8D4
:1038F000F04170B5FFF7A8FE6DDBFFBEBDE8F041FB
:1039000001494FF0000070470000F87F10B591EAC0
:10391000030F48BF83F000433FF58AAB841A71EB75
:10392000030C07D28CF0004C121943EB0C03001B64
:1039300061EB0C014FEA1154A4EB135CDFF8A4E136
:103940001EEA430F18BF9EEA445F00F0B48021EAEC
:10395000045123EA6E035242C3EB6E0338BF5B1E71
:10396000DCF1200E25D322FA0CFE10EB0E0043FAF8
:103970000CFE41EB0E01CCF1200E03FA0EFE10EB13
:103980000E00CCF1200E51F1000129D401EB0451BD
:1039900012FA0EF2BDE8104058BF7047401C1CBF21
:1039A000B2F1004F704700280CBF491C20F0010005
:1039B000704712EB020E43EB030218BF4FF0010EEB
:1039C0004EEA4202ACF1200CDCF11E0E56D943FA4D
:1039D0000CFE10EB0E00CCF11E0E51F1FF31D5D5CF
:1039E0000EF1010E12FA0EFE404141EB010101EB16
:1039F000445C5FEA5C5C10D901EB045110EBDE70B3
:103A000038BFBEF1004FBDE8104018BF7047002816
:103A10000CBF491C20F00100704734D24FEAD42C6F
:103A200024F4006411F500111BD0B1FA81F20B3AB5
:103A3000A41AA41ED2F12003914030FA03F31943D3
:103A4000904001EBCC7101EB0451002CBDE810401B
:103A5000A8BF704701F1C04101F000414FF00000E4
:103A60007047B0FA80F310FA03F102D1BDE81040BC
:103A70007047E41A173C4805C90AE2E701EB045114
:103A8000BDE81040704749104FEA300001EB045187
:103A9000BDE8104002E04FF0000170474A0008BF47
:103AA0000042F8D0B2F5001F28BF704701F0004176
:103AB0004FF0000070479EEA445F07D011EA5E0FA6
:103AC000BDE8104004BF002100207047BDE8104051
:103AD00070B5FFF7B9FD00BF40DFF63E104683F03A
:103AE000004170470000E0FF43004FEAD30C4FEA6B
:103AF0003C0C43401FBF40070CF1605113F0FE4FD8
:103B000070471CF0006F03D10CF00041002070479B
:103B10000CF0004343EA507040EACC0010B500F0CE
:103B20003EF800BF000000924FEA0001FFF7DABD47
:103B30004FF00041A1F500214FF0000070474FF019
:103B40007E5209E011F0004204D54042C1F100016B
:103B500038BF491E42F07E5202F170620B0012BF64
:103B600020235FEA00017047B1FA81FC01FA0CF1F1
:103B7000A3EB0C0320FA03FC41EA0C0102EBC35255
:103B8000C3F1200310FA03FC5CEA416C42EB112004
:103B900018BF5FF0806C28BF20F0010070470EF165
:103BA000020E2EF0030E5EF8044B244204D44FEABA
:103BB0004102B2F17F4F11D84FEA4003B3F17F4F7A
:103BC0000CD80ED14FEAD07C0CEB4C0C0CF1020C53
:103BD000B2F17F4F08BF4CEBD17C04E04FF0080CF2
:103BE00001E04FEAD17C0CEB4C0324FA03F404F01F
:103BF0000704B4F1040C06D20EEB840CBDE81040AF
:103C00004CF0010C6047DFE80CF0070802024FF0AF
:103C10000040A0F5800010BD0846420018BFD2F158
:103C2000807288BF00F0004010BDF1EE100A4FF620
:103C3000FF71C0F2C03120EA010040F04070E1EEB7
:103C4000100A70470CF00F03092B08BF082000F082
:103C500059800A2B0BD0082B18BF704708BF1CF0E7
:103C6000400F0AD04FF000004FF0000170471CF0E9
:103C7000400F18BF4FF0004070471CF0100F08D0E5
:103C800000F07F4220F0704342EAD3014FEA4370D4
:103C9000704700F0604021F07F4242EA000201F0EC
:103CA0007F4040EA727070474FF0FF0C4CF4E06CBC
:103CB0001CEA11531CBF9CEA030C9445C2BFDA42B4
:103CC00001EB02517047002B0DD0BCF1000F0FD05B
:103CD00001F00041002AA4BF41F0E04141F07F61C2
:103CE0004FF00000704701F000414FF000007047B6
:103CF00050EA01334FF09B0C18BF4CF0806C7FF4FE
:103D000037AA70471CF4801F11D01CF4E02F03D099
:103D10006FEACC31490070474FF04050EFF300821A
:103D200022F0704242EA000282F3008870474FF0AE
:103D30000000704700000000000000000000F03F9D
:103D4000000000000000F83F00000000000000003C
:103D50000000004003B8E23F000000000000000047
:103D600006D0CF43EBFD4C3E033333333333E33FD5
:103D7000FFAB6FDBB66DDB3F4D268F515555D53F01
:103D800001411DA96074D13F65DBC9934A86CD3FCF
:103D9000EF4E454A287ECA3F3E5555555555C53FBD
:103DA00093BDBE166CC166BF2CDE25AF6A56113FAF
:103DB000F16BD2C541BDBBBED0A4BE726937663EB1
:103DC00000000000000000000100000001000000F1
:103DD00002000000010000000300000001000000DC
:103DE00005000000010000000900000000000000C4
:103DF000000000000102030406070809020304058D
:103E0000060708090A0B0C0D0E0F1010010203041F
:103E100005060708090A0B0C0D0E0F10403E00089E
:103E20000000002010000000C4010008503E0008FF
:103E30001000002088070000E001000800000000DA
:103E4000010000001000000000127A0000000000D5
:040000050800018965
:00000001FF
